{
  "_format": "hh-sol-artifact-1",
  "contractName": "BigBangTheory",
  "sourceName": "contracts/BigBangTheory.sol",
  "abi": [
    {
      "inputs": [
        {
          "internalType": "address",
          "name": "_VRFCoordinator",
          "type": "address"
        },
        {
          "internalType": "address",
          "name": "_LinkToken",
          "type": "address"
        },
        {
          "internalType": "bytes32",
          "name": "_keyhash",
          "type": "bytes32"
        },
        {
          "internalType": "string",
          "name": "_chooseOneCharacter",
          "type": "string"
        }
      ],
      "stateMutability": "nonpayable",
      "type": "constructor"
    },
    {
      "anonymous": false,
      "inputs": [
        {
          "indexed": true,
          "internalType": "address",
          "name": "owner",
          "type": "address"
        },
        {
          "indexed": true,
          "internalType": "address",
          "name": "approved",
          "type": "address"
        },
        {
          "indexed": true,
          "internalType": "uint256",
          "name": "tokenId",
          "type": "uint256"
        }
      ],
      "name": "Approval",
      "type": "event"
    },
    {
      "anonymous": false,
      "inputs": [
        {
          "indexed": true,
          "internalType": "address",
          "name": "owner",
          "type": "address"
        },
        {
          "indexed": true,
          "internalType": "address",
          "name": "operator",
          "type": "address"
        },
        {
          "indexed": false,
          "internalType": "bool",
          "name": "approved",
          "type": "bool"
        }
      ],
      "name": "ApprovalForAll",
      "type": "event"
    },
    {
      "anonymous": false,
      "inputs": [
        {
          "indexed": true,
          "internalType": "address",
          "name": "previousOwner",
          "type": "address"
        },
        {
          "indexed": true,
          "internalType": "address",
          "name": "newOwner",
          "type": "address"
        }
      ],
      "name": "OwnershipTransferred",
      "type": "event"
    },
    {
      "anonymous": false,
      "inputs": [
        {
          "indexed": true,
          "internalType": "address",
          "name": "from",
          "type": "address"
        },
        {
          "indexed": true,
          "internalType": "address",
          "name": "to",
          "type": "address"
        },
        {
          "indexed": true,
          "internalType": "uint256",
          "name": "tokenId",
          "type": "uint256"
        }
      ],
      "name": "Transfer",
      "type": "event"
    },
    {
      "anonymous": false,
      "inputs": [
        {
          "indexed": true,
          "internalType": "bytes32",
          "name": "requestId",
          "type": "bytes32"
        }
      ],
      "name": "requestedCharacter",
      "type": "event"
    },
    {
      "anonymous": false,
      "inputs": [
        {
          "indexed": false,
          "internalType": "string",
          "name": "",
          "type": "string"
        },
        {
          "indexed": false,
          "internalType": "uint256",
          "name": "",
          "type": "uint256"
        }
      ],
      "name": "result",
      "type": "event"
    },
    {
      "inputs": [],
      "name": "LinkToken",
      "outputs": [
        {
          "internalType": "address",
          "name": "",
          "type": "address"
        }
      ],
      "stateMutability": "view",
      "type": "function"
    },
    {
      "inputs": [],
      "name": "VRFCoordinator",
      "outputs": [
        {
          "internalType": "address",
          "name": "",
          "type": "address"
        }
      ],
      "stateMutability": "view",
      "type": "function"
    },
    {
      "inputs": [
        {
          "internalType": "address",
          "name": "to",
          "type": "address"
        },
        {
          "internalType": "uint256",
          "name": "tokenId",
          "type": "uint256"
        }
      ],
      "name": "approve",
      "outputs": [],
      "stateMutability": "nonpayable",
      "type": "function"
    },
    {
      "inputs": [
        {
          "internalType": "address",
          "name": "owner",
          "type": "address"
        }
      ],
      "name": "balanceOf",
      "outputs": [
        {
          "internalType": "uint256",
          "name": "",
          "type": "uint256"
        }
      ],
      "stateMutability": "view",
      "type": "function"
    },
    {
      "inputs": [
        {
          "internalType": "uint256",
          "name": "",
          "type": "uint256"
        }
      ],
      "name": "characters",
      "outputs": [
        {
          "internalType": "uint256",
          "name": "emphatic",
          "type": "uint256"
        },
        {
          "internalType": "uint256",
          "name": "toleration",
          "type": "uint256"
        },
        {
          "internalType": "uint256",
          "name": "Nerdy",
          "type": "uint256"
        },
        {
          "internalType": "uint256",
          "name": "SocialSkills",
          "type": "uint256"
        },
        {
          "internalType": "uint256",
          "name": "Extrovert",
          "type": "uint256"
        },
        {
          "internalType": "uint256",
          "name": "organized",
          "type": "uint256"
        },
        {
          "internalType": "string",
          "name": "name",
          "type": "string"
        }
      ],
      "stateMutability": "view",
      "type": "function"
    },
    {
      "inputs": [],
      "name": "findResult",
      "outputs": [],
      "stateMutability": "nonpayable",
      "type": "function"
    },
    {
      "inputs": [
        {
          "internalType": "uint256",
          "name": "tokenId",
          "type": "uint256"
        }
      ],
      "name": "getApproved",
      "outputs": [
        {
          "internalType": "address",
          "name": "",
          "type": "address"
        }
      ],
      "stateMutability": "view",
      "type": "function"
    },
    {
      "inputs": [],
      "name": "getNumberOfCharacters",
      "outputs": [
        {
          "internalType": "uint256",
          "name": "",
          "type": "uint256"
        }
      ],
      "stateMutability": "view",
      "type": "function"
    },
    {
      "inputs": [
        {
          "internalType": "uint256",
          "name": "tokenId",
          "type": "uint256"
        }
      ],
      "name": "getTokenURI",
      "outputs": [
        {
          "internalType": "string",
          "name": "",
          "type": "string"
        }
      ],
      "stateMutability": "view",
      "type": "function"
    },
    {
      "inputs": [
        {
          "internalType": "address",
          "name": "owner",
          "type": "address"
        },
        {
          "internalType": "address",
          "name": "operator",
          "type": "address"
        }
      ],
      "name": "isApprovedForAll",
      "outputs": [
        {
          "internalType": "bool",
          "name": "",
          "type": "bool"
        }
      ],
      "stateMutability": "view",
      "type": "function"
    },
    {
      "inputs": [],
      "name": "name",
      "outputs": [
        {
          "internalType": "string",
          "name": "",
          "type": "string"
        }
      ],
      "stateMutability": "view",
      "type": "function"
    },
    {
      "inputs": [],
      "name": "owner",
      "outputs": [
        {
          "internalType": "address",
          "name": "",
          "type": "address"
        }
      ],
      "stateMutability": "view",
      "type": "function"
    },
    {
      "inputs": [
        {
          "internalType": "uint256",
          "name": "tokenId",
          "type": "uint256"
        }
      ],
      "name": "ownerOf",
      "outputs": [
        {
          "internalType": "address",
          "name": "",
          "type": "address"
        }
      ],
      "stateMutability": "view",
      "type": "function"
    },
    {
      "inputs": [],
      "name": "pennyCount",
      "outputs": [
        {
          "internalType": "uint256",
          "name": "",
          "type": "uint256"
        }
      ],
      "stateMutability": "view",
      "type": "function"
    },
    {
      "inputs": [],
      "name": "randomResult",
      "outputs": [
        {
          "internalType": "uint256",
          "name": "",
          "type": "uint256"
        }
      ],
      "stateMutability": "view",
      "type": "function"
    },
    {
      "inputs": [
        {
          "internalType": "bytes32",
          "name": "requestId",
          "type": "bytes32"
        },
        {
          "internalType": "uint256",
          "name": "randomness",
          "type": "uint256"
        }
      ],
      "name": "rawFulfillRandomness",
      "outputs": [],
      "stateMutability": "nonpayable",
      "type": "function"
    },
    {
      "inputs": [],
      "name": "renounceOwnership",
      "outputs": [],
      "stateMutability": "nonpayable",
      "type": "function"
    },
    {
      "inputs": [],
      "name": "requestCharacterAttributes",
      "outputs": [
        {
          "internalType": "bytes32",
          "name": "",
          "type": "bytes32"
        }
      ],
      "stateMutability": "nonpayable",
      "type": "function"
    },
    {
      "inputs": [
        {
          "internalType": "bytes32",
          "name": "",
          "type": "bytes32"
        }
      ],
      "name": "requestToCharacterName",
      "outputs": [
        {
          "internalType": "string",
          "name": "",
          "type": "string"
        }
      ],
      "stateMutability": "view",
      "type": "function"
    },
    {
      "inputs": [
        {
          "internalType": "address",
          "name": "from",
          "type": "address"
        },
        {
          "internalType": "address",
          "name": "to",
          "type": "address"
        },
        {
          "internalType": "uint256",
          "name": "tokenId",
          "type": "uint256"
        }
      ],
      "name": "safeTransferFrom",
      "outputs": [],
      "stateMutability": "nonpayable",
      "type": "function"
    },
    {
      "inputs": [
        {
          "internalType": "address",
          "name": "from",
          "type": "address"
        },
        {
          "internalType": "address",
          "name": "to",
          "type": "address"
        },
        {
          "internalType": "uint256",
          "name": "tokenId",
          "type": "uint256"
        },
        {
          "internalType": "bytes",
          "name": "_data",
          "type": "bytes"
        }
      ],
      "name": "safeTransferFrom",
      "outputs": [],
      "stateMutability": "nonpayable",
      "type": "function"
    },
    {
      "inputs": [
        {
          "internalType": "address",
          "name": "operator",
          "type": "address"
        },
        {
          "internalType": "bool",
          "name": "approved",
          "type": "bool"
        }
      ],
      "name": "setApprovalForAll",
      "outputs": [],
      "stateMutability": "nonpayable",
      "type": "function"
    },
    {
      "inputs": [
        {
          "internalType": "uint256",
          "name": "tokenId",
          "type": "uint256"
        },
        {
          "internalType": "string",
          "name": "_tokenURI",
          "type": "string"
        }
      ],
      "name": "setTokenURI",
      "outputs": [],
      "stateMutability": "nonpayable",
      "type": "function"
    },
    {
      "inputs": [],
      "name": "sheldonCount",
      "outputs": [
        {
          "internalType": "uint256",
          "name": "",
          "type": "uint256"
        }
      ],
      "stateMutability": "view",
      "type": "function"
    },
    {
      "inputs": [],
      "name": "sheldonVSpenny",
      "outputs": [],
      "stateMutability": "nonpayable",
      "type": "function"
    },
    {
      "inputs": [
        {
          "internalType": "bytes4",
          "name": "interfaceId",
          "type": "bytes4"
        }
      ],
      "name": "supportsInterface",
      "outputs": [
        {
          "internalType": "bool",
          "name": "",
          "type": "bool"
        }
      ],
      "stateMutability": "view",
      "type": "function"
    },
    {
      "inputs": [],
      "name": "symbol",
      "outputs": [
        {
          "internalType": "string",
          "name": "",
          "type": "string"
        }
      ],
      "stateMutability": "view",
      "type": "function"
    },
    {
      "inputs": [
        {
          "internalType": "uint256",
          "name": "tokenId",
          "type": "uint256"
        }
      ],
      "name": "tokenURI",
      "outputs": [
        {
          "internalType": "string",
          "name": "",
          "type": "string"
        }
      ],
      "stateMutability": "view",
      "type": "function"
    },
    {
      "inputs": [
        {
          "internalType": "address",
          "name": "from",
          "type": "address"
        },
        {
          "internalType": "address",
          "name": "to",
          "type": "address"
        },
        {
          "internalType": "uint256",
          "name": "tokenId",
          "type": "uint256"
        }
      ],
      "name": "transferFrom",
      "outputs": [],
      "stateMutability": "nonpayable",
      "type": "function"
    },
    {
      "inputs": [
        {
          "internalType": "address",
          "name": "newOwner",
          "type": "address"
        }
      ],
      "name": "transferOwnership",
      "outputs": [],
      "stateMutability": "nonpayable",
      "type": "function"
    }
  ],
  "bytecode": "0x60c06040523480156200001157600080fd5b506040516200518c3803806200518c83398181016040528101906200003791906200044e565b83836040518060400160405280600d81526020017f42696742616e675468656f7279000000000000000000000000000000000000008152506040518060400160405280600381526020017f42425400000000000000000000000000000000000000000000000000000000008152508160009080519060200190620000bd929190620002f2565b508060019080519060200190620000d6929190620002f2565b5050508173ffffffffffffffffffffffffffffffffffffffff1660a08173ffffffffffffffffffffffffffffffffffffffff1660601b815250508073ffffffffffffffffffffffffffffffffffffffff1660808173ffffffffffffffffffffffffffffffffffffffff1660601b815250505050620001696200015d6200022460201b60201c565b6200022c60201b60201c565b83600d60006101000a81548173ffffffffffffffffffffffffffffffffffffffff021916908373ffffffffffffffffffffffffffffffffffffffff16021790555082600e60006101000a81548173ffffffffffffffffffffffffffffffffffffffff021916908373ffffffffffffffffffffffffffffffffffffffff16021790555081600a8190555067016345785d8a0000600b81905550806011908051906020019062000219929190620002f2565b5050505050620006d5565b600033905090565b6000600860009054906101000a900473ffffffffffffffffffffffffffffffffffffffff16905081600860006101000a81548173ffffffffffffffffffffffffffffffffffffffff021916908373ffffffffffffffffffffffffffffffffffffffff1602179055508173ffffffffffffffffffffffffffffffffffffffff168173ffffffffffffffffffffffffffffffffffffffff167f8be0079c531659141344cd1fd0a4f28419497f9722a3daafe3b4186f6b6457e060405160405180910390a35050565b8280546200030090620005b2565b90600052602060002090601f01602090048101928262000324576000855562000370565b82601f106200033f57805160ff191683800117855562000370565b8280016001018555821562000370579182015b828111156200036f57825182559160200191906001019062000352565b5b5090506200037f919062000383565b5090565b5b808211156200039e57600081600090555060010162000384565b5090565b6000620003b9620003b38462000508565b620004df565b905082815260208101848484011115620003d857620003d762000681565b5b620003e58482856200057c565b509392505050565b600081519050620003fe81620006a1565b92915050565b6000815190506200041581620006bb565b92915050565b600082601f8301126200043357620004326200067c565b5b815162000445848260208601620003a2565b91505092915050565b600080600080608085870312156200046b576200046a6200068b565b5b60006200047b87828801620003ed565b94505060206200048e87828801620003ed565b9350506040620004a18782880162000404565b925050606085015167ffffffffffffffff811115620004c557620004c462000686565b5b620004d3878288016200041b565b91505092959194509250565b6000620004eb620004fe565b9050620004f98282620005e8565b919050565b6000604051905090565b600067ffffffffffffffff8211156200052657620005256200064d565b5b620005318262000690565b9050602081019050919050565b60006200054b826200055c565b9050919050565b6000819050919050565b600073ffffffffffffffffffffffffffffffffffffffff82169050919050565b60005b838110156200059c5780820151818401526020810190506200057f565b83811115620005ac576000848401525b50505050565b60006002820490506001821680620005cb57607f821691505b60208210811415620005e257620005e16200061e565b5b50919050565b620005f38262000690565b810181811067ffffffffffffffff821117156200061557620006146200064d565b5b80604052505050565b7f4e487b7100000000000000000000000000000000000000000000000000000000600052602260045260246000fd5b7f4e487b7100000000000000000000000000000000000000000000000000000000600052604160045260246000fd5b600080fd5b600080fd5b600080fd5b600080fd5b6000601f19601f8301169050919050565b620006ac816200053e565b8114620006b857600080fd5b50565b620006c68162000552565b8114620006d257600080fd5b50565b60805160601c60a05160601c614a7d6200070f600039600081816111e20152611f4d0152600081816110600152611f110152614a7d6000f3fe608060405234801561001057600080fd5b50600436106101da5760003560e01c80636352211e11610104578063a22cb465116100a2578063de6d566711610071578063de6d566714610525578063e5816f4114610555578063e985e9c514610573578063f2fde38b146105a3576101da565b8063a22cb465146104b3578063b88d4fde146104cf578063c87b56dd146104eb578063db618f851461051b576101da565b80638da5cb5b116100de5780638da5cb5b1461043d578063910ffd9c1461045b57806394985ddd1461047957806395d89b4114610495576101da565b80636352211e146103d357806370a0823114610403578063715018a614610433576101da565b8063394393bf1161017c5780634810bc591161014b5780634810bc59146103435780634f8e2fdf146103795780635a9ebf311461039757806362d36dec146103b5576101da565b8063394393bf146102cf5780633bb3a24d146102d957806342619f661461030957806342842e0e14610327576101da565b8063095ea7b3116101b8578063095ea7b31461025d578063162094c41461027957806323b872dd1461029557806333b60863146102b1576101da565b806301ffc9a7146101df57806306fdde031461020f578063081812fc1461022d575b600080fd5b6101f960048036038101906101f49190613107565b6105bf565b60405161020691906138d5565b60405180910390f35b6102176106a1565b6040516102249190613979565b60405180910390f35b61024760048036038101906102429190613161565b610733565b6040516102549190613830565b60405180910390f35b6102776004803603810190610272919061302d565b6107b8565b005b610293600480360381019061028e91906131bb565b6108d0565b005b6102af60048036038101906102aa9190612f17565b61092e565b005b6102b961098e565b6040516102c69190613830565b60405180910390f35b6102d76109b4565b005b6102f360048036038101906102ee9190613161565b610cf2565b6040516103009190613979565b60405180910390f35b610311610d04565b60405161031e9190613d01565b60405180910390f35b610341600480360381019061033c9190612f17565b610d0a565b005b61035d60048036038101906103589190613161565b610d2a565b6040516103709796959493929190613de9565b60405180910390f35b610381610e04565b60405161038e9190613830565b60405180910390f35b61039f610e2a565b6040516103ac9190613d01565b60405180910390f35b6103bd610e30565b6040516103ca9190613d01565b60405180910390f35b6103ed60048036038101906103e89190613161565b610e3d565b6040516103fa9190613830565b60405180910390f35b61041d60048036038101906104189190612eaa565b610eef565b60405161042a9190613d01565b60405180910390f35b61043b610fa7565b005b61044561102f565b6040516104529190613830565b60405180910390f35b610463611059565b60405161047091906138f0565b60405180910390f35b610493600480360381019061048e91906130c7565b6111e0565b005b61049d61127c565b6040516104aa9190613979565b60405180910390f35b6104cd60048036038101906104c89190612fed565b61130e565b005b6104e960048036038101906104e49190612f6a565b611324565b005b61050560048036038101906105009190613161565b611386565b6040516105129190613979565b60405180910390f35b6105236114d8565b005b61053f600480360381019061053a919061309a565b6116d0565b60405161054c9190613979565b60405180910390f35b61055d611770565b60405161056a9190613d01565b60405180910390f35b61058d60048036038101906105889190612ed7565b611776565b60405161059a91906138d5565b60405180910390f35b6105bd60048036038101906105b89190612eaa565b61180a565b005b60007f80ac58cd000000000000000000000000000000000000000000000000000000007bffffffffffffffffffffffffffffffffffffffffffffffffffffffff1916827bffffffffffffffffffffffffffffffffffffffffffffffffffffffff1916148061068a57507f5b5e139f000000000000000000000000000000000000000000000000000000007bffffffffffffffffffffffffffffffffffffffffffffffffffffffff1916827bffffffffffffffffffffffffffffffffffffffffffffffffffffffff1916145b8061069a575061069982611902565b5b9050919050565b6060600080546106b090614120565b80601f01602080910402602001604051908101604052809291908181526020018280546106dc90614120565b80156107295780601f106106fe57610100808354040283529160200191610729565b820191906000526020600020905b81548152906001019060200180831161070c57829003601f168201915b5050505050905090565b600061073e8261196c565b61077d576040517f08c379a000000000000000000000000000000000000000000000000000000000815260040161077490613b97565b60405180910390fd5b6004600083815260200190815260200160002060009054906101000a900473ffffffffffffffffffffffffffffffffffffffff169050919050565b60006107c382610e3d565b90508073ffffffffffffffffffffffffffffffffffffffff168373ffffffffffffffffffffffffffffffffffffffff161415610834576040517f08c379a000000000000000000000000000000000000000000000000000000000815260040161082b90613c37565b60405180910390fd5b8073ffffffffffffffffffffffffffffffffffffffff166108536119d8565b73ffffffffffffffffffffffffffffffffffffffff16148061088257506108818161087c6119d8565b611776565b5b6108c1576040517f08c379a00000000000000000000000000000000000000000000000000000000081526004016108b890613ad7565b60405180910390fd5b6108cb83836119e0565b505050565b6108e16108db6119d8565b83611a99565b610920576040517f08c379a000000000000000000000000000000000000000000000000000000000815260040161091790613c85565b60405180910390fd5b61092a8282611b77565b5050565b61093f6109396119d8565b82611a99565b61097e576040517f08c379a000000000000000000000000000000000000000000000000000000000815260040161097590613c85565b60405180910390fd5b610989838383611beb565b505050565b600d60009054906101000a900473ffffffffffffffffffffffffffffffffffffffff1681565b60126001815481106109c9576109c861429e565b5b90600052602060002090600702016000015460126000815481106109f0576109ef61429e565b5b9060005260206000209060070201600001541115610a255760106000815480929190610a1b90614183565b9190505550610a3e565b600f6000815480929190610a3890614183565b91905055505b6012600181548110610a5357610a5261429e565b5b9060005260206000209060070201600101546012600081548110610a7a57610a7961429e565b5b9060005260206000209060070201600101541115610aaf5760106000815480929190610aa590614183565b9190505550610ac8565b600f6000815480929190610ac290614183565b91905055505b6012600181548110610add57610adc61429e565b5b9060005260206000209060070201600201546012600081548110610b0457610b0361429e565b5b9060005260206000209060070201600201541115610b3957600f6000815480929190610b2f90614183565b9190505550610b52565b60106000815480929190610b4c90614183565b91905055505b6012600181548110610b6757610b6661429e565b5b9060005260206000209060070201600301546012600081548110610b8e57610b8d61429e565b5b9060005260206000209060070201600301541115610bc35760106000815480929190610bb990614183565b9190505550610bdc565b600f6000815480929190610bd690614183565b91905055505b6012600181548110610bf157610bf061429e565b5b9060005260206000209060070201600401546012600081548110610c1857610c1761429e565b5b9060005260206000209060070201600401541115610c4d5760106000815480929190610c4390614183565b9190505550610c66565b600f6000815480929190610c6090614183565b91905055505b6012600181548110610c7b57610c7a61429e565b5b9060005260206000209060070201600501546012600081548110610ca257610ca161429e565b5b9060005260206000209060070201600501541115610cd757600f6000815480929190610ccd90614183565b9190505550610cf0565b60106000815480929190610cea90614183565b91905055505b565b6060610cfd82611386565b9050919050565b600c5481565b610d2583838360405180602001604052806000815250611324565b505050565b60128181548110610d3a57600080fd5b9060005260206000209060070201600091509050806000015490806001015490806002015490806003015490806004015490806005015490806006018054610d8190614120565b80601f0160208091040260200160405190810160405280929190818152602001828054610dad90614120565b8015610dfa5780601f10610dcf57610100808354040283529160200191610dfa565b820191906000526020600020905b815481529060010190602001808311610ddd57829003601f168201915b5050505050905087565b600e60009054906101000a900473ffffffffffffffffffffffffffffffffffffffff1681565b600f5481565b6000601280549050905090565b6000806002600084815260200190815260200160002060009054906101000a900473ffffffffffffffffffffffffffffffffffffffff169050600073ffffffffffffffffffffffffffffffffffffffff168173ffffffffffffffffffffffffffffffffffffffff161415610ee6576040517f08c379a0000000000000000000000000000000000000000000000000000000008152600401610edd90613b17565b60405180910390fd5b80915050919050565b60008073ffffffffffffffffffffffffffffffffffffffff168273ffffffffffffffffffffffffffffffffffffffff161415610f60576040517f08c379a0000000000000000000000000000000000000000000000000000000008152600401610f5790613af7565b60405180910390fd5b600360008373ffffffffffffffffffffffffffffffffffffffff1673ffffffffffffffffffffffffffffffffffffffff168152602001908152602001600020549050919050565b610faf6119d8565b73ffffffffffffffffffffffffffffffffffffffff16610fcd61102f565b73ffffffffffffffffffffffffffffffffffffffff1614611023576040517f08c379a000000000000000000000000000000000000000000000000000000000815260040161101a90613bb7565b60405180910390fd5b61102d6000611e47565b565b6000600860009054906101000a900473ffffffffffffffffffffffffffffffffffffffff16905090565b6000600b547f000000000000000000000000000000000000000000000000000000000000000073ffffffffffffffffffffffffffffffffffffffff166370a08231306040518263ffffffff1660e01b81526004016110b79190613830565b60206040518083038186803b1580156110cf57600080fd5b505afa1580156110e3573d6000803e3d6000fd5b505050506040513d601f19601f82011682018060405250810190611107919061318e565b1015611148576040517f08c379a000000000000000000000000000000000000000000000000000000000815260040161113f90613a3b565b60405180910390fd5b6000611158600a54600b54611f0d565b9050336014600083815260200190815260200160002060006101000a81548173ffffffffffffffffffffffffffffffffffffffff021916908373ffffffffffffffffffffffffffffffffffffffff160217905550807f4524b4810ba8440bb3a0be2570032607e20f42672a2b6f13d6c07b0ea35e4db060405160405180910390a28091505090565b7f000000000000000000000000000000000000000000000000000000000000000073ffffffffffffffffffffffffffffffffffffffff163373ffffffffffffffffffffffffffffffffffffffff161461126e576040517f08c379a000000000000000000000000000000000000000000000000000000000815260040161126590613c17565b60405180910390fd5b611278828261206f565b5050565b60606001805461128b90614120565b80601f01602080910402602001604051908101604052809291908181526020018280546112b790614120565b80156113045780601f106112d957610100808354040283529160200191611304565b820191906000526020600020905b8154815290600101906020018083116112e757829003601f168201915b5050505050905090565b6113206113196119d8565b838361240e565b5050565b61133561132f6119d8565b83611a99565b611374576040517f08c379a000000000000000000000000000000000000000000000000000000000815260040161136b90613c85565b60405180910390fd5b6113808484848461257b565b50505050565b60606113918261196c565b6113d0576040517f08c379a00000000000000000000000000000000000000000000000000000000081526004016113c790613b77565b60405180910390fd5b60006006600084815260200190815260200160002080546113f090614120565b80601f016020809104026020016040519081016040528092919081815260200182805461141c90614120565b80156114695780601f1061143e57610100808354040283529160200191611469565b820191906000526020600020905b81548152906001019060200180831161144c57829003601f168201915b50505050509050600061147a6125d7565b90506000815114156114905781925050506114d3565b6000825111156114c55780826040516020016114ad9291906137cb565b604051602081830303815290604052925050506114d3565b6114ce846125ee565b925050505b919050565b6040516020016114e790613806565b60405160208183030381529060405280519060200120601160405160200161150f91906137ef565b6040516020818303038152906040528051906020012014156115f657600f546010541415611571577ff24e2a25310649f4faea92cfa6f2463b6dd89de81f75e6cb4aeda039af0f987a6010546040516115689190613c57565b60405180910390a15b600f5460105411156115bb577ff24e2a25310649f4faea92cfa6f2463b6dd89de81f75e6cb4aeda039af0f987a6010546040516115ae9190613ca5565b60405180910390a16115f5565b7ff24e2a25310649f4faea92cfa6f2463b6dd89de81f75e6cb4aeda039af0f987a6010546040516115ec9190613a7b565b60405180910390a15b5b6040516020016116059061381b565b60405160208183030381529060405280519060200120601160405160200161162d91906137ef565b6040516020818303038152906040528051906020012014156116ce57600f546010541015611693577ff24e2a25310649f4faea92cfa6f2463b6dd89de81f75e6cb4aeda039af0f987a600f546040516116869190613cd3565b60405180910390a16116cd565b7ff24e2a25310649f4faea92cfa6f2463b6dd89de81f75e6cb4aeda039af0f987a600f546040516116c49190613aa9565b60405180910390a15b5b565b601360205280600052604060002060009150905080546116ef90614120565b80601f016020809104026020016040519081016040528092919081815260200182805461171b90614120565b80156117685780601f1061173d57610100808354040283529160200191611768565b820191906000526020600020905b81548152906001019060200180831161174b57829003601f168201915b505050505081565b60105481565b6000600560008473ffffffffffffffffffffffffffffffffffffffff1673ffffffffffffffffffffffffffffffffffffffff16815260200190815260200160002060008373ffffffffffffffffffffffffffffffffffffffff1673ffffffffffffffffffffffffffffffffffffffff16815260200190815260200160002060009054906101000a900460ff16905092915050565b6118126119d8565b73ffffffffffffffffffffffffffffffffffffffff1661183061102f565b73ffffffffffffffffffffffffffffffffffffffff1614611886576040517f08c379a000000000000000000000000000000000000000000000000000000000815260040161187d90613bb7565b60405180910390fd5b600073ffffffffffffffffffffffffffffffffffffffff168173ffffffffffffffffffffffffffffffffffffffff1614156118f6576040517f08c379a00000000000000000000000000000000000000000000000000000000081526004016118ed906139bb565b60405180910390fd5b6118ff81611e47565b50565b60007f01ffc9a7000000000000000000000000000000000000000000000000000000007bffffffffffffffffffffffffffffffffffffffffffffffffffffffff1916827bffffffffffffffffffffffffffffffffffffffffffffffffffffffff1916149050919050565b60008073ffffffffffffffffffffffffffffffffffffffff166002600084815260200190815260200160002060009054906101000a900473ffffffffffffffffffffffffffffffffffffffff1673ffffffffffffffffffffffffffffffffffffffff1614159050919050565b600033905090565b816004600083815260200190815260200160002060006101000a81548173ffffffffffffffffffffffffffffffffffffffff021916908373ffffffffffffffffffffffffffffffffffffffff160217905550808273ffffffffffffffffffffffffffffffffffffffff16611a5383610e3d565b73ffffffffffffffffffffffffffffffffffffffff167f8c5be1e5ebec7d5bd14f71427d1e84f3dd0314c0f7b2291e5b200ac8c7c3b92560405160405180910390a45050565b6000611aa48261196c565b611ae3576040517f08c379a0000000000000000000000000000000000000000000000000000000008152600401611ada90613a5b565b60405180910390fd5b6000611aee83610e3d565b90508073ffffffffffffffffffffffffffffffffffffffff168473ffffffffffffffffffffffffffffffffffffffff161480611b5d57508373ffffffffffffffffffffffffffffffffffffffff16611b4584610733565b73ffffffffffffffffffffffffffffffffffffffff16145b80611b6e5750611b6d8185611776565b5b91505092915050565b611b808261196c565b611bbf576040517f08c379a0000000000000000000000000000000000000000000000000000000008152600401611bb690613b37565b60405180910390fd5b80600660008481526020019081526020016000209080519060200190611be6929190612c7f565b505050565b8273ffffffffffffffffffffffffffffffffffffffff16611c0b82610e3d565b73ffffffffffffffffffffffffffffffffffffffff1614611c61576040517f08c379a0000000000000000000000000000000000000000000000000000000008152600401611c5890613bd7565b60405180910390fd5b600073ffffffffffffffffffffffffffffffffffffffff168273ffffffffffffffffffffffffffffffffffffffff161415611cd1576040517f08c379a0000000000000000000000000000000000000000000000000000000008152600401611cc8906139fb565b60405180910390fd5b611cdc838383612695565b611ce76000826119e0565b6001600360008573ffffffffffffffffffffffffffffffffffffffff1673ffffffffffffffffffffffffffffffffffffffff1681526020019081526020016000206000828254611d379190613fc5565b925050819055506001600360008473ffffffffffffffffffffffffffffffffffffffff1673ffffffffffffffffffffffffffffffffffffffff1681526020019081526020016000206000828254611d8e9190613f3e565b92505081905550816002600083815260200190815260200160002060006101000a81548173ffffffffffffffffffffffffffffffffffffffff021916908373ffffffffffffffffffffffffffffffffffffffff160217905550808273ffffffffffffffffffffffffffffffffffffffff168473ffffffffffffffffffffffffffffffffffffffff167fddf252ad1be2c89b69c2b068fc378daa952ba7f163c4a11628f55a4df523b3ef60405160405180910390a4505050565b6000600860009054906101000a900473ffffffffffffffffffffffffffffffffffffffff16905081600860006101000a81548173ffffffffffffffffffffffffffffffffffffffff021916908373ffffffffffffffffffffffffffffffffffffffff1602179055508173ffffffffffffffffffffffffffffffffffffffff168173ffffffffffffffffffffffffffffffffffffffff167f8be0079c531659141344cd1fd0a4f28419497f9722a3daafe3b4186f6b6457e060405160405180910390a35050565b60007f000000000000000000000000000000000000000000000000000000000000000073ffffffffffffffffffffffffffffffffffffffff16634000aea07f000000000000000000000000000000000000000000000000000000000000000084866000604051602001611f8192919061390b565b6040516020818303038152906040526040518463ffffffff1660e01b8152600401611fae93929190613897565b602060405180830381600087803b158015611fc857600080fd5b505af1158015611fdc573d6000803e3d6000fd5b505050506040513d601f19601f82011682018060405250810190612000919061306d565b50600061202384600030600760008981526020019081526020016000205461269a565b9050600160076000868152602001908152602001600020546120459190613f3e565b600760008681526020019081526020016000208190555061206684826126d6565b91505092915050565b600061207b6009612709565b90506000600267ffffffffffffffff81111561209a576120996142cd565b5b6040519080825280602002602001820160405280156120cd57816020015b60608152602001906001900390816120b85790505b5090506040518060400160405280600581526020017f50656e6e790000000000000000000000000000000000000000000000000000008152508160008151811061211a5761211961429e565b5b60200260200101819052506040518060400160405280600781526020017f5368656c646f6e000000000000000000000000000000000000000000000000008152508160018151811061216f5761216e61429e565b5b6020026020010181905250606060005b82518110156121b85782818151811061219b5761219a61429e565b5b6020026020010151915080806121b090614183565b91505061217f565b5060006064856121c891906141e0565b9050600060648660016040516020016121e2929190613d1c565b6040516020818303038152906040528051906020012060001c61220591906141e0565b90506000606487600260405160200161221f929190613d45565b6040516020818303038152906040528051906020012060001c61224291906141e0565b90506000606488600360405160200161225c929190613d6e565b6040516020818303038152906040528051906020012060001c61227f91906141e0565b905060006064896004604051602001612299929190613d97565b6040516020818303038152906040528051906020012060001c6122bc91906141e0565b9050600060648a60056040516020016122d6929190613dc0565b6040516020818303038152906040528051906020012060001c6122f991906141e0565b905060006040518060e001604052808881526020018781526020018681526020018581526020018481526020018381526020018981525090506012819080600181540180825580915050600190039060005260206000209060070201600090919091909150600082015181600001556020820151816001015560408201518160020155606082015181600301556080820151816004015560a0820151816005015560c08201518160060190805190602001906123b6929190612c7f565b5050506123f6601460008e815260200190815260200160002060009054906101000a900473ffffffffffffffffffffffffffffffffffffffff168b612717565b6124006009612735565b505050505050505050505050565b8173ffffffffffffffffffffffffffffffffffffffff168373ffffffffffffffffffffffffffffffffffffffff16141561247d576040517f08c379a000000000000000000000000000000000000000000000000000000000815260040161247490613a1b565b60405180910390fd5b80600560008573ffffffffffffffffffffffffffffffffffffffff1673ffffffffffffffffffffffffffffffffffffffff16815260200190815260200160002060008473ffffffffffffffffffffffffffffffffffffffff1673ffffffffffffffffffffffffffffffffffffffff16815260200190815260200160002060006101000a81548160ff0219169083151502179055508173ffffffffffffffffffffffffffffffffffffffff168373ffffffffffffffffffffffffffffffffffffffff167f17307eab39ab6107e8899845ad3d59bd9653f200f220920489ca2b5937696c318360405161256e91906138d5565b60405180910390a3505050565b612586848484611beb565b6125928484848461274b565b6125d1576040517f08c379a00000000000000000000000000000000000000000000000000000000081526004016125c89061399b565b60405180910390fd5b50505050565b606060405180602001604052806000815250905090565b60606125f98261196c565b612638576040517f08c379a000000000000000000000000000000000000000000000000000000000815260040161262f90613bf7565b60405180910390fd5b60006126426125d7565b90506000815111612662576040518060200160405280600081525061268d565b8061266c846128e2565b60405160200161267d9291906137cb565b6040516020818303038152906040525b915050919050565b505050565b6000848484846040516020016126b39493929190613934565b6040516020818303038152906040528051906020012060001c9050949350505050565b600082826040516020016126eb92919061379f565b60405160208183030381529060405280519060200120905092915050565b600081600001549050919050565b612731828260405180602001604052806000815250612a43565b5050565b6001816000016000828254019250508190555050565b600061276c8473ffffffffffffffffffffffffffffffffffffffff16612a9e565b156128d5578373ffffffffffffffffffffffffffffffffffffffff1663150b7a026127956119d8565b8786866040518563ffffffff1660e01b81526004016127b7949392919061384b565b602060405180830381600087803b1580156127d157600080fd5b505af192505050801561280257506040513d601f19601f820116820180604052508101906127ff9190613134565b60015b612885573d8060008114612832576040519150601f19603f3d011682016040523d82523d6000602084013e612837565b606091505b5060008151141561287d576040517f08c379a00000000000000000000000000000000000000000000000000000000081526004016128749061399b565b60405180910390fd5b805181602001fd5b63150b7a0260e01b7bffffffffffffffffffffffffffffffffffffffffffffffffffffffff1916817bffffffffffffffffffffffffffffffffffffffffffffffffffffffff1916149150506128da565b600190505b949350505050565b6060600082141561292a576040518060400160405280600181526020017f30000000000000000000000000000000000000000000000000000000000000008152509050612a3e565b600082905060005b6000821461295c57808061294590614183565b915050600a826129559190613f94565b9150612932565b60008167ffffffffffffffff811115612978576129776142cd565b5b6040519080825280601f01601f1916602001820160405280156129aa5781602001600182028036833780820191505090505b5090505b60008514612a37576001826129c39190613fc5565b9150600a856129d291906141e0565b60306129de9190613f3e565b60f81b8183815181106129f4576129f361429e565b5b60200101907effffffffffffffffffffffffffffffffffffffffffffffffffffffffffffff1916908160001a905350600a85612a309190613f94565b94506129ae565b8093505050505b919050565b612a4d8383612ab1565b612a5a600084848461274b565b612a99576040517f08c379a0000000000000000000000000000000000000000000000000000000008152600401612a909061399b565b60405180910390fd5b505050565b600080823b905060008111915050919050565b600073ffffffffffffffffffffffffffffffffffffffff168273ffffffffffffffffffffffffffffffffffffffff161415612b21576040517f08c379a0000000000000000000000000000000000000000000000000000000008152600401612b1890613b57565b60405180910390fd5b612b2a8161196c565b15612b6a576040517f08c379a0000000000000000000000000000000000000000000000000000000008152600401612b61906139db565b60405180910390fd5b612b7660008383612695565b6001600360008473ffffffffffffffffffffffffffffffffffffffff1673ffffffffffffffffffffffffffffffffffffffff1681526020019081526020016000206000828254612bc69190613f3e565b92505081905550816002600083815260200190815260200160002060006101000a81548173ffffffffffffffffffffffffffffffffffffffff021916908373ffffffffffffffffffffffffffffffffffffffff160217905550808273ffffffffffffffffffffffffffffffffffffffff16600073ffffffffffffffffffffffffffffffffffffffff167fddf252ad1be2c89b69c2b068fc378daa952ba7f163c4a11628f55a4df523b3ef60405160405180910390a45050565b828054612c8b90614120565b90600052602060002090601f016020900481019282612cad5760008555612cf4565b82601f10612cc657805160ff1916838001178555612cf4565b82800160010185558215612cf4579182015b82811115612cf3578251825591602001919060010190612cd8565b5b509050612d019190612d05565b5090565b5b80821115612d1e576000816000905550600101612d06565b5090565b6000612d35612d3084613e84565b613e5f565b905082815260208101848484011115612d5157612d50614301565b5b612d5c8482856140de565b509392505050565b6000612d77612d7284613eb5565b613e5f565b905082815260208101848484011115612d9357612d92614301565b5b612d9e8482856140de565b509392505050565b600081359050612db5816149d4565b92915050565b600081359050612dca816149eb565b92915050565b600081519050612ddf816149eb565b92915050565b600081359050612df481614a02565b92915050565b600081359050612e0981614a19565b92915050565b600081519050612e1e81614a19565b92915050565b600082601f830112612e3957612e386142fc565b5b8135612e49848260208601612d22565b91505092915050565b600082601f830112612e6757612e666142fc565b5b8135612e77848260208601612d64565b91505092915050565b600081359050612e8f81614a30565b92915050565b600081519050612ea481614a30565b92915050565b600060208284031215612ec057612ebf61430b565b5b6000612ece84828501612da6565b91505092915050565b60008060408385031215612eee57612eed61430b565b5b6000612efc85828601612da6565b9250506020612f0d85828601612da6565b9150509250929050565b600080600060608486031215612f3057612f2f61430b565b5b6000612f3e86828701612da6565b9350506020612f4f86828701612da6565b9250506040612f6086828701612e80565b9150509250925092565b60008060008060808587031215612f8457612f8361430b565b5b6000612f9287828801612da6565b9450506020612fa387828801612da6565b9350506040612fb487828801612e80565b925050606085013567ffffffffffffffff811115612fd557612fd4614306565b5b612fe187828801612e24565b91505092959194509250565b600080604083850312156130045761300361430b565b5b600061301285828601612da6565b925050602061302385828601612dbb565b9150509250929050565b600080604083850312156130445761304361430b565b5b600061305285828601612da6565b925050602061306385828601612e80565b9150509250929050565b6000602082840312156130835761308261430b565b5b600061309184828501612dd0565b91505092915050565b6000602082840312156130b0576130af61430b565b5b60006130be84828501612de5565b91505092915050565b600080604083850312156130de576130dd61430b565b5b60006130ec85828601612de5565b92505060206130fd85828601612e80565b9150509250929050565b60006020828403121561311d5761311c61430b565b5b600061312b84828501612dfa565b91505092915050565b60006020828403121561314a5761314961430b565b5b600061315884828501612e0f565b91505092915050565b6000602082840312156131775761317661430b565b5b600061318584828501612e80565b91505092915050565b6000602082840312156131a4576131a361430b565b5b60006131b284828501612e95565b91505092915050565b600080604083850312156131d2576131d161430b565b5b60006131e085828601612e80565b925050602083013567ffffffffffffffff81111561320157613200614306565b5b61320d85828601612e52565b9150509250929050565b61322081613ff9565b82525050565b61322f8161400b565b82525050565b61323e81614017565b82525050565b61325561325082614017565b6141cc565b82525050565b600061326682613efb565b6132708185613f11565b93506132808185602086016140ed565b61328981614310565b840191505092915050565b61329d81614084565b82525050565b6132ac81614096565b82525050565b6132bb816140a8565b82525050565b6132ca816140ba565b82525050565b6132d9816140cc565b82525050565b60006132ea82613f06565b6132f48185613f22565b93506133048185602086016140ed565b61330d81614310565b840191505092915050565b600061332382613f06565b61332d8185613f33565b935061333d8185602086016140ed565b80840191505092915050565b6000815461335681614120565b6133608186613f33565b9450600182166000811461337b576001811461338c576133bf565b60ff198316865281860193506133bf565b61339585613ee6565b60005b838110156133b757815481890152600182019150602081019050613398565b838801955050505b50505092915050565b60006133d5603283613f22565b91506133e082614321565b604082019050919050565b60006133f8602683613f22565b915061340382614370565b604082019050919050565b600061341b601c83613f22565b9150613426826143bf565b602082019050919050565b600061343e602483613f22565b9150613449826143e8565b604082019050919050565b6000613461601983613f22565b915061346c82614437565b602082019050919050565b6000613484602b83613f22565b915061348f82614460565b604082019050919050565b60006134a7602c83613f22565b91506134b2826144af565b604082019050919050565b60006134ca601683613f22565b91506134d5826144fe565b602082019050919050565b60006134ed601883613f22565b91506134f882614527565b602082019050919050565b6000613510603883613f22565b915061351b82614550565b604082019050919050565b6000613533602a83613f22565b915061353e8261459f565b604082019050919050565b6000613556602983613f22565b9150613561826145ee565b604082019050919050565b6000613579602e83613f22565b91506135848261463d565b604082019050919050565b600061359c602083613f22565b91506135a78261468c565b602082019050919050565b60006135bf603183613f22565b91506135ca826146b5565b604082019050919050565b60006135e2602c83613f22565b91506135ed82614704565b604082019050919050565b6000613605602083613f22565b915061361082614753565b602082019050919050565b6000613628602983613f22565b91506136338261477c565b604082019050919050565b600061364b602f83613f22565b9150613656826147cb565b604082019050919050565b600061366e601f83613f22565b91506136798261481a565b602082019050919050565b6000613691602183613f22565b915061369c82614843565b604082019050919050565b60006136b4600583613f33565b91506136bf82614892565b600582019050919050565b60006136d7600a83613f22565b91506136e2826148bb565b602082019050919050565b60006136fa603183613f22565b9150613705826148e4565b604082019050919050565b600061371d600783613f33565b915061372882614933565b600782019050919050565b6000613740601f83613f22565b915061374b8261495c565b602082019050919050565b6000613763602183613f22565b915061376e82614985565b604082019050919050565b6137828161406d565b82525050565b6137996137948261406d565b6141d6565b82525050565b60006137ab8285613244565b6020820191506137bb8284613788565b6020820191508190509392505050565b60006137d78285613318565b91506137e38284613318565b91508190509392505050565b60006137fb8284613349565b915081905092915050565b6000613811826136a7565b9150819050919050565b600061382682613710565b9150819050919050565b60006020820190506138456000830184613217565b92915050565b60006080820190506138606000830187613217565b61386d6020830186613217565b61387a6040830185613779565b818103606083015261388c818461325b565b905095945050505050565b60006060820190506138ac6000830186613217565b6138b96020830185613779565b81810360408301526138cb818461325b565b9050949350505050565b60006020820190506138ea6000830184613226565b92915050565b60006020820190506139056000830184613235565b92915050565b60006040820190506139206000830185613235565b61392d6020830184613779565b9392505050565b60006080820190506139496000830187613235565b6139566020830186613779565b6139636040830185613217565b6139706060830184613779565b95945050505050565b6000602082019050818103600083015261399381846132df565b905092915050565b600060208201905081810360008301526139b4816133c8565b9050919050565b600060208201905081810360008301526139d4816133eb565b9050919050565b600060208201905081810360008301526139f48161340e565b9050919050565b60006020820190508181036000830152613a1481613431565b9050919050565b60006020820190508181036000830152613a3481613454565b9050919050565b60006020820190508181036000830152613a5481613477565b9050919050565b60006020820190508181036000830152613a748161349a565b9050919050565b60006040820190508181036000830152613a94816134bd565b9050613aa36020830184613779565b92915050565b60006040820190508181036000830152613ac2816134e0565b9050613ad16020830184613779565b92915050565b60006020820190508181036000830152613af081613503565b9050919050565b60006020820190508181036000830152613b1081613526565b9050919050565b60006020820190508181036000830152613b3081613549565b9050919050565b60006020820190508181036000830152613b508161356c565b9050919050565b60006020820190508181036000830152613b708161358f565b9050919050565b60006020820190508181036000830152613b90816135b2565b9050919050565b60006020820190508181036000830152613bb0816135d5565b9050919050565b60006020820190508181036000830152613bd0816135f8565b9050919050565b60006020820190508181036000830152613bf08161361b565b9050919050565b60006020820190508181036000830152613c108161363e565b9050919050565b60006020820190508181036000830152613c3081613661565b9050919050565b60006020820190508181036000830152613c5081613684565b9050919050565b60006040820190508181036000830152613c70816136ca565b9050613c7f6020830184613779565b92915050565b60006020820190508181036000830152613c9e816136ed565b9050919050565b60006040820190508181036000830152613cbe81613733565b9050613ccd6020830184613779565b92915050565b60006040820190508181036000830152613cec81613756565b9050613cfb6020830184613779565b92915050565b6000602082019050613d166000830184613779565b92915050565b6000604082019050613d316000830185613779565b613d3e6020830184613294565b9392505050565b6000604082019050613d5a6000830185613779565b613d6760208301846132a3565b9392505050565b6000604082019050613d836000830185613779565b613d9060208301846132b2565b9392505050565b6000604082019050613dac6000830185613779565b613db960208301846132c1565b9392505050565b6000604082019050613dd56000830185613779565b613de260208301846132d0565b9392505050565b600060e082019050613dfe600083018a613779565b613e0b6020830189613779565b613e186040830188613779565b613e256060830187613779565b613e326080830186613779565b613e3f60a0830185613779565b81810360c0830152613e5181846132df565b905098975050505050505050565b6000613e69613e7a565b9050613e758282614152565b919050565b6000604051905090565b600067ffffffffffffffff821115613e9f57613e9e6142cd565b5b613ea882614310565b9050602081019050919050565b600067ffffffffffffffff821115613ed057613ecf6142cd565b5b613ed982614310565b9050602081019050919050565b60008190508160005260206000209050919050565b600081519050919050565b600081519050919050565b600082825260208201905092915050565b600082825260208201905092915050565b600081905092915050565b6000613f498261406d565b9150613f548361406d565b9250827fffffffffffffffffffffffffffffffffffffffffffffffffffffffffffffffff03821115613f8957613f88614211565b5b828201905092915050565b6000613f9f8261406d565b9150613faa8361406d565b925082613fba57613fb9614240565b5b828204905092915050565b6000613fd08261406d565b9150613fdb8361406d565b925082821015613fee57613fed614211565b5b828203905092915050565b60006140048261404d565b9050919050565b60008115159050919050565b6000819050919050565b60007fffffffff0000000000000000000000000000000000000000000000000000000082169050919050565b600073ffffffffffffffffffffffffffffffffffffffff82169050919050565b6000819050919050565b600060ff82169050919050565b600061408f82614077565b9050919050565b60006140a182614077565b9050919050565b60006140b382614077565b9050919050565b60006140c582614077565b9050919050565b60006140d782614077565b9050919050565b82818337600083830152505050565b60005b8381101561410b5780820151818401526020810190506140f0565b8381111561411a576000848401525b50505050565b6000600282049050600182168061413857607f821691505b6020821081141561414c5761414b61426f565b5b50919050565b61415b82614310565b810181811067ffffffffffffffff8211171561417a576141796142cd565b5b80604052505050565b600061418e8261406d565b91507fffffffffffffffffffffffffffffffffffffffffffffffffffffffffffffffff8214156141c1576141c0614211565b5b600182019050919050565b6000819050919050565b6000819050919050565b60006141eb8261406d565b91506141f68361406d565b92508261420657614205614240565b5b828206905092915050565b7f4e487b7100000000000000000000000000000000000000000000000000000000600052601160045260246000fd5b7f4e487b7100000000000000000000000000000000000000000000000000000000600052601260045260246000fd5b7f4e487b7100000000000000000000000000000000000000000000000000000000600052602260045260246000fd5b7f4e487b7100000000000000000000000000000000000000000000000000000000600052603260045260246000fd5b7f4e487b7100000000000000000000000000000000000000000000000000000000600052604160045260246000fd5b600080fd5b600080fd5b600080fd5b600080fd5b6000601f19601f8301169050919050565b7f4552433732313a207472616e7366657220746f206e6f6e20455243373231526560008201527f63656976657220696d706c656d656e7465720000000000000000000000000000602082015250565b7f4f776e61626c653a206e6577206f776e657220697320746865207a65726f206160008201527f6464726573730000000000000000000000000000000000000000000000000000602082015250565b7f4552433732313a20746f6b656e20616c7265616479206d696e74656400000000600082015250565b7f4552433732313a207472616e7366657220746f20746865207a65726f2061646460008201527f7265737300000000000000000000000000000000000000000000000000000000602082015250565b7f4552433732313a20617070726f766520746f2063616c6c657200000000000000600082015250565b7f4e6f7420656e6f756768204c494e4b202d2066696c6c20636f6e74726163742060008201527f7769746820666175636574000000000000000000000000000000000000000000602082015250565b7f4552433732313a206f70657261746f7220717565727920666f72206e6f6e657860008201527f697374656e7420746f6b656e0000000000000000000000000000000000000000602082015250565b7f43686f73656e2070656e6e793a594f55204c4f4f534500000000000000000000600082015250565b7f43686f73656e207368656c646f6e3a594f55204c6f6f73650000000000000000600082015250565b7f4552433732313a20617070726f76652063616c6c6572206973206e6f74206f7760008201527f6e6572206e6f7220617070726f76656420666f7220616c6c0000000000000000602082015250565b7f4552433732313a2062616c616e636520717565727920666f7220746865207a6560008201527f726f206164647265737300000000000000000000000000000000000000000000602082015250565b7f4552433732313a206f776e657220717565727920666f72206e6f6e657869737460008201527f656e7420746f6b656e0000000000000000000000000000000000000000000000602082015250565b7f45524337323155524953746f726167653a2055524920736574206f66206e6f6e60008201527f6578697374656e7420746f6b656e000000000000000000000000000000000000602082015250565b7f4552433732313a206d696e7420746f20746865207a65726f2061646472657373600082015250565b7f45524337323155524953746f726167653a2055524920717565727920666f722060008201527f6e6f6e6578697374656e7420746f6b656e000000000000000000000000000000602082015250565b7f4552433732313a20617070726f76656420717565727920666f72206e6f6e657860008201527f697374656e7420746f6b656e0000000000000000000000000000000000000000602082015250565b7f4f776e61626c653a2063616c6c6572206973206e6f7420746865206f776e6572600082015250565b7f4552433732313a207472616e73666572206f6620746f6b656e2074686174206960008201527f73206e6f74206f776e0000000000000000000000000000000000000000000000602082015250565b7f4552433732314d657461646174613a2055524920717565727920666f72206e6f60008201527f6e6578697374656e7420746f6b656e0000000000000000000000000000000000602082015250565b7f4f6e6c7920565246436f6f7264696e61746f722063616e2066756c66696c6c00600082015250565b7f4552433732313a20617070726f76616c20746f2063757272656e74206f776e6560008201527f7200000000000000000000000000000000000000000000000000000000000000602082015250565b7f70656e6e79000000000000000000000000000000000000000000000000000000600082015250565b7f4954275320412054494500000000000000000000000000000000000000000000600082015250565b7f4552433732313a207472616e736665722063616c6c6572206973206e6f74206f60008201527f776e6572206e6f7220617070726f766564000000000000000000000000000000602082015250565b7f7368656c646f6e00000000000000000000000000000000000000000000000000600082015250565b7f43686f73656e2070656e6e793a594f5520415245205448452057494e4e455200600082015250565b7f43686f73656e207368656c646f6e3a594f5520415245205448452057494e4e4560008201527f5200000000000000000000000000000000000000000000000000000000000000602082015250565b6149dd81613ff9565b81146149e857600080fd5b50565b6149f48161400b565b81146149ff57600080fd5b50565b614a0b81614017565b8114614a1657600080fd5b50565b614a2281614021565b8114614a2d57600080fd5b50565b614a398161406d565b8114614a4457600080fd5b5056fea264697066735822122058540946588fb38b775430071be20eff7372e49dcc3aea7a879c66a18689930464736f6c63430008070033",
  "linkReferences": {},
  "deployedLinkReferences": {}
}